:020000040800F2
:10000000980F0020AD160008110300081303000824
:10001000170300081B0300081F030008000000006E
:1000200000000000000000000000000023030008A2
:10003000250300080000000027030008290300082A
:10004000C7160008C7160008C7160008C71600081C
:10005000C7160008C7160008C7160008C71600080C
:10006000C7160008C7160008C7160008C7160008FC
:10007000C7160008C7160008C7160008C7160008EC
:10008000C7160008C7160008C7160008C7160008DC
:10009000C7160008C7160008C7160008C7160008CC
:1000A000C7160008C7160008C7160008C7160008BC
:1000B00027140008AF140008C7160008C716000868
:1000C000C7160008C7160008C7160008C71600089C
:1000D000C7160008AF060008C7160008E715000895
:1000E000C7160008C7160008C716000800F002F877
:1000F00000F090F80AA090E8000C82448344AAF132
:100100000107DA4501D100F085F8AFF2090EBAE82F
:100110000F0013F0010F18BFFB1A43F0010318473B
:100120007C5600009C560000103A24BF78C878C165
:10013000FAD8520724BF30C830C144BF04680C60ED
:10014000704700000023002400250026103A28BF35
:1001500078C1FBD8520728BF30C148BF0B60704739
:100160006E2903F05984702903F0D187662905F0C0
:100170009282652905F08F82672905F08C826129BA
:1001800005F08B8203681B0A28BF41F080016929B2
:1001900003F03282642903F02F82752903F02C8248
:1001A0006F2903F05F87782903F09D87E92903F021
:1001B000F986E42903F0F686F52903F0F386EF29A2
:1001C00003F05C87F82903F09C870368DB0928BFEC
:1001D00041F08001632903F06886732903F06D867E
:1001E000E32904F0B181F32904F0B68100207047BF
:1001F0001FB503F097FF04000020002104F0A6FEC5
:10020000401C60600020002104F08AFEE0601FBDF9
:1002100010B510BD04F03AFA1146FFF7E9FF00F0FF
:100220001FF804F061FA03B4FFF7F2FF03BC00F01B
:10023000D7F9000010B52A4800782A490968884291
:100240000DD00020284908802648007824490870ED
:1002500000F032FF00BF25A001F0D9F900BF10BDAA
:100260004FF4407001F0C6FF00F050F94FF4E13058
:1002700000F0C4F94FF4E13001F05EF901F05EF8EE
:1002800000F074FA41F61F4140F2E73001F099F8AE
:1002900000BF00F059FF0028FBD120E0184800689B
:1002A00010B91848007890B9FFF7C4FF16480078D5
:1002B00020B100F001FF00201349087013480078B6
:1002C00068B100F083FC00201049087007E00020AE
:1002D0000C49087000BF00F037FF0028FBD1DDE7B4
:1002E000000000202400002020000020BDD3CAD53B
:1002F000B5BDD7B4CCACD7AABBBB0D0A000000007B
:10030000300000203A000020380000203900002092
:10031000704700BFFEE700BFFEE700BFFEE700BF7B
:10032000FEE7704770477047704700000CB500202B
:10033000019000906C48006840F480306A49086081
:1003400000BF6948006800F4003000900198401C2C
:100350000190009818B90198B0F5A06FF1D16248EA
:10036000006800F4003010B10120009001E000208E
:1003700000900098012843D15C48006840F01000CC
:100380005A4908600846006820F0030008600846E3
:10039000006840F0020008605348406852494860D5
:1003A0000846406848600846406840F480604860FD
:1003B0000846406820F47C1048600846406840F4D5
:1003C000E81048600846006840F08070086000BF90
:1003D0004548006800F000700028F9D042484068A5
:1003E00020F00300404948600846406840F00200A1
:1003F000486000BF3C48406800F00C000828F9D174
:100400000CBD10B5FFF792FF10BD10B5364800685F
:1004100040F001003449086008464068344908400B
:100420003149486008460068324908402E49086052
:100430000846006820F4802008600846406820F4E0
:10044000FE0048604FF41F008860FFF7DAFF4FF0AE
:1004500000602949086010BD10B50021002000226D
:10046000214B5B6803F00C0121B1042906D0082957
:1004700028D107E0214B224C236027E01F4B204C62
:10048000236023E0184B5B6803F47010164B5B6825
:1004900003F48032022303EB904022B9194B43430B
:1004A000174C23600DE0104B5B6803F4003323B15D
:1004B000144B4343124C236003E0104B4343104C56
:1004C000236003E00D4B0E4C236000BF00BF064BC2
:1004D0005B68C3F303130C4CE15C094B1B68CB4016
:1004E000074C236010BD00000010024000200240B5
:1004F0000000FFF8FFFFF6FE08ED00E000127A00B2
:100500000400002000093D000800002010B56FF035
:10051000040001F0BEFE2E4800682E49B0FBF1F049
:100520002D4908700846007800EB4001C1EBC0106F
:100530004FF6FF7101EAC0002849088010BD01464E
:10054000254A12784A434FF0E0235A6100229A610B
:100550001A46126942F001021A6100BF4FF0E02210
:10056000106900F001021AB100F48032002AF5D0BF
:100570004FF0E022126922F001024FF0E0231A61ED
:1005800000229A6170470146144A12884A434FF08C
:10059000E0235A6100229A611A46126942F0010270
:1005A0001A6100BF4FF0E022106900F001021AB199
:1005B00000F48032002AF5D04FF0E022126922F0D8
:1005C00001024FF0E0231A6100229A617047000097
:1005D0000400002000127A00180000201A000020F9
:1005E00000BF704700BF584A128802F04002002A3C
:1005F000F9D0C2B2544B1B1D1A80704710B586B09B
:100600000446012144F2040001F08CFB4FF4007019
:10061000ADF8140003208DF8160018208DF817008F
:1006200005A94A4801F0C2F84FF48060ADF8140003
:1006300004208DF8170005A9444801F0B7F82520DB
:100640008DF8000003208DF801008DF802000120D4
:100650008DF80300684601F0D2FD01940020ADF84A
:100660000800ADF80A00ADF80C00ADF810000C2041
:10067000ADF80E0001A9344801F0FBFB012240F265
:100680002551314801F08DFC01212F4801F07DFCFE
:1006900041F61F4140F2E73000F06AFE00202C498D
:1006A000088000212B4802F06BFC06B010BD70B52D
:1006B00000254FF45871244801F058FD10B122482C
:1006C00001F0D4FC40F225511F4801F04FFD0028F5
:1006D00039D01D4801F0CAFCC4B21D48008800F49E
:1006E000004000282FD11A480088C82813DA0021BA
:1006F000184802F0D9FE1648008818B9012115489B
:1007000002F03EFC124801880088401C104A10800C
:100710001148445417E00E48008840F400400C494A
:1007200008800EA10C4803F067F805465DB10E483D
:10073000006808B9012000E000200B490860C821CA
:10074000054803F08AF870BD0038014000080140F8
:10075000200000200004004064000020436865631E
:100760006B5F4D6F646500002400002000B587B00A
:1007700001214FF4017001F0D5FA4FF4004001F06F
:1007800035FA0220ADF8040000208DF8070001A919
:100790002E4801F00BF82E4801F09AFD002002903F
:1007A0008DF80C008DF80D004FF4602004900020AF
:1007B000059001208DF8180002A9254801F0AFFD31
:1007C0000121234801F0D7FD214801F0F6FD00BFCB
:1007D0001F4801F0F7FD0028FAD11D4801F0FCFD8B
:1007E00000BF1B4801F0FDFD0028FAD107B000BD95
:1007F00010B50446072301222146154801F027FEC3
:100800000121134801F0F7FD00BF0221104801F05B
:1008100063FF0028F9D00E4801F080FE10BD2DE9DD
:10082000F04107460C460025002608E03846FFF751
:10083000DFFF05440520FFF7A6FE701CC6B2A642E6
:10084000F4DBB5FBF4F080B2BDE8F08100080140B4
:100850000024014070B504460025E548008800F4F6
:10086000004058B10020E2490988C1F30E01E14A75
:1008700050542146104602F0BFFF0546284670BD81
:100880002DE9F04105460E4617461C464FF000087C
:100890000020D7490880C821D64802F0DEFF002C8E
:1008A00031D028E000BF2146D3A000F0B0FE00BF49
:1008B0002946D2A002F054FE00BF2946D1A000F084
:1008C000A6FE00BF3846FFF75EFEC948008800F468
:1008D000004080B13046FFF7BDFF48B100BFC549B9
:1008E000CBA000F094FE00BF0020C149088006E0C4
:1008F0000020BF490880601E80B20400D2D100BF32
:100900000CB94FF001084046BDE8F0812DE9F047F1
:1009100006460F4690461C464FF000090025002071
:10092000B3490880C821B34802F097FF24E031465C
:10093000B2A002F015FEECB118E04046FFF723FE2E
:10094000AB48008800F4004080B13846FFF782FFD2
:1009500048B100BFA749AEA000F059FE00BF00207B
:10096000A34908800BE00020A1490880601E80B2E6
:100970000400E2D1681CC5B2052DD8DB00BF1CB94C
:10098000052D01DB4FF001094846BDE8F08710B5A1
:1009900000BFA3A000F03BFE00BF3C234FF49672C3
:1009A000A3A1A5A0FFF76CFF08B1012010BD00BFF7
:1009B000A4A000F02CFE00BF3C234FF49672A4A12B
:1009C000A4A0FFF75DFF08B10120EFE700BFA3A0DF
:1009D00000F01DFE00BF3C234FF496729CA1A3A023
:1009E000FFF74EFF08B10120E0E700BFA0A000F034
:1009F0000EFE00BF3C234FF4967295A19FA0FFF717
:100A00003FFF08B10220D1E700BF9FA000F0FFFD2B
:100A100000BF3C234FF496729FA1A0A0FFF730FFC8
:100A200008B10120C2E700BF9EA000F0F0FD00BFAA
:100A30003C234FF4967286A19EA0FFF721FF08B1D8
:100A40000120B3E700BF9EA000F0E1FD00BF3C2302
:100A50004FF496729EA1A1A0FFF712FF08B10120EA
:100A6000A4E700BFA0A000F0D2FD00BF3C234FF4DC
:100A7000967277A1A1A0FFF703FF08B1012095E7C7
:100A800000BFA0A000F0C3FD00BF00BFA0A000F009
:100A9000BEFD00BF002089E700B5B3B0C82101A8A2
:100AA00002F0FDFE00BF9FA000F0B1FD00BFA3A0BB
:100AB000ABA3B0A2B2A1009001A802F05DFD642337
:100AC0001A4663A101A8FFF721FF38B100BFB6A005
:100AD00000F09DFD00BF012033B000BD00BFBBA0F2
:100AE00000F095FD00BF00BFBEA000F090FD00BF6C
:100AF000C82101A802F0D3FEC0A3C2A2CDA101A8C3
:100B000002F03AFD00BF01A9D0A000F080FD00BFB7
:100B1000C8234FF47A72D2A101A8FFF7F7FE30B1D3
:100B200000BFD3A000F073FD00BF0120D4E700BFD9
:100B3000D8A000F06CFD00BF00BFDCA000F067FD96
:100B400000BFC82101A802F0AAFEDCA2E3A101A80F
:100B500002F012FD00BF01A9E5A000F058FD00BFA2
:100B600064231A46E6A101A8FFF7D0FE30B100BF0A
:100B7000E7A000F04CFD00BF0120ADE700BFEBA0F7
:100B800000F045FD00BF00BFECA000F040FD00BF3D
:100B9000C82101A802F083FEECA2F7A101A802F08F
:100BA000EBFC64231A46FAA101A8FFF7AFFE30B1AF
:100BB00000BFFCA000F02BFD00BF01208CE700BFB0
:100BC000FEA000F024FD00BF002085E700B5B3B013
:100BD000C82101A802F063FEFB480068FBA3DBA26A
:100BE000FDA1009001A802F0C7FC00BF0CE20000CC
:100BF00020000020640000202564200025730D0AD9
:100C000000000000434D44203A2025730D0A0000E7
:100C10007265636569766564202573200D0A00009E
:100C2000BFAACABCBDF8D0D0C5E4D6C30D0A000027
:100C300042524F4D0000000041542B515253543D3D
:100C400031000000D6D8C6F4B3C9B9A60D0A000019
:100C50004F4B00004154453000000000B9D8B1D5D9
:100C6000BBD8CFD4B3C9B9A60D0A000041540000C7
:100C7000C1ACBDD3B3C9B9A60D0A000041542B4382
:100C800046554E3D310000004D54C9E8D6C3B3C9A6
:100C9000B9A60D0A000000003436300041542B4341
:100CA000494D4900BBF1C8A1BFA8BAC5B3C9B9A68F
:100CB0000D0A000041542B43474154543D3100007C
:100CC000BCA4BBEECDF8C2E7B3C9B9A60D0A0000BB
:100CD0002B43474154543A203100000041542B43E8
:100CE000474154543F000000CDF8C2E7BCA4BBEE1E
:100CF000B2E9D1AFB3C9B9A60D0A000041542B43E4
:100D000045535100B2E9BFB4B3C9B9A60D0A0000FA
:100D100042433236B3F5CABCBBAFB3C9B9A60D0A5C
:100D200000000000D7BCB1B8B7A2CBCDB0A2C0EFD5
:100D3000D4C6C8FDD4AAD7E90D0A000064663263A0
:100D40003839373438383665653638376661656620
:100D5000393565646239313037623863000000002C
:100D6000766F6C746167655F6465766963655F3033
:100D70003031000067747561356461467249360030
:100D800041542B514D544346473D22414C49415516
:100D90005448222C302C222573222C222573222CFD
:100DA0002225732200000000B7A2CBCDB0A2C0EF75
:100DB000D4C6C8FDD4AAD7E9CAA7B0DCA3ACD7BCB7
:100DC000B1B8D6D8C6F40D0A00000000B7A2CBCD4A
:100DD000B0A2C0EFD4C6C8FDD4AAD7E9B3C9B9A69A
:100DE0000D0A0000D7BCB1B8C1ACBDD3B0A2C0EFF2
:100DF000D4C6B7FECEF1C6F70D0A0000313838333D
:100E000000000000696F742D30367A303062703027
:100E10006E776D623974702E6D7174742E696F7493
:100E20006875622E616C6979756E63732E636F6D80
:100E30000000000041542B514D544F50454E3D3061
:100E40002C222573222C257300000000B7FECEF162
:100E5000C6F7C3FCC1EE3A2025730D0A000000005E
:100E60002B514D544F50454E3A20302C300000004D
:100E7000C1ACBDD3B0A2C0EFD4C6B7FECEF1C6F7A9
:100E8000CAA7B0DCA3ACD7BCB1B8D6D8C6F40D0A9B
:100E900000000000C1ACBDD3B0A2C0EFD4C6B7FE05
:100EA000CEF1C6F7B3C9B9A60D0A0000D7BCB1B8D8
:100EB000C1ACBDD3C9E8B1B80D0A0000766F6C743F
:100EC0006167655F6465766963655F3030312667A9
:100ED00074756135646146724936000041542B5186
:100EE0004D54434F4E4E3D302C22257322000000BE
:100EF000C9E8B1B8C3FCC1EE3A2025730D0A000061
:100F00002B514D54434F4E4E3A20302C302C300054
:100F1000C1ACBDD3C9E8B1B8CAA7B0DCA3ACD7BCDB
:100F2000B1B8D6D8C6F40D0A00000000C1ACBDD3DC
:100F3000C9E8B1B8B3C9B9A60D0A0000D7BCB1B8A9
:100F4000B6A9D4C4D6F7CCE20D0A00002F67747599
:100F500061356461467249362F766F6C74616765DE
:100F60005F6465766963655F3030312F75736572D4
:100F70002F7570646174650041542B514D54535565
:100F8000423D302C312C222573222C3000000000F1
:100F90002B514D545355423A20302C312C302C31AA
:100FA00000000000B6A9D4C4CAA7B0DCA3ACD7BC6B
:100FB000B1B8D6D8C6F40D0A00000000B6A9D4C452
:100FC000B3C9B9A60D0A0000240000206368656358
:100FD0006B5F6D6F6465000041542B514D5450554B
:100FE000423D302C312C312C302C222573222C22E6
:100FF0007B22706172616D73223A7B222573223AE3
:1010000025647D7D220D0A007048AFF24002AFF2E8
:10101000C40103686EA000F0FAFA00BF4FF49673A3
:1010200064227BA101A8FFF771FC18B100207C4964
:10103000086002E001207A49086033B000BD00B5C5
:10104000B3B0C82101A802F02AFCAFF2001275A1CA
:1010500001A802F091FA4FF4967364226CA101A8E2
:10106000FFF754FC18B100206D49086002E0012030
:101070006B49086033B000BD00B5B3B0C82101A80A
:1010800002F00DFC754876A3AFF2401276A10090F5
:1010900001A802F071FA4FF4967364225CA101A8D2
:1010A000FFF734FC18B100205D49086002E0012020
:1010B0005B49086033B000BD2DE9F0470A210120EB
:1010C000FFF7ADFB8246504603F093FF07464FF013
:1010D0006632714B03F0DCFF054603F04DFF81469D
:1010E0006E4904F097F90446204604F005F90546D8
:1010F0002A460B466AA1594802F03EFAFFF7BCFFA8
:1011000069480168204604F051FA074604F0F4F8F3
:1011100021F000410546654A654B04F0B7F811D847
:101120006148046000BF63A000F071FA00BF204670
:1011300004F0E2F805460022614B03F06DFF01D296
:10114000FFF77DFFBDE8F08710B500205D4908601E
:1011500000214FF0804001F013FF00BF5AA000F0C3
:1011600056FA00BFFFF713FC30B100BF5BA000F0E0
:101170004EFA00BF012010BD00BFAFF26C4000F07E
:1011800046FA00BF00BF5CA000F041FA00BFFFF7C5
:1011900083FC30B100BF5DA000F039FA00BF012030
:1011A000E9E700BF60A000F032FA00BF01201C494F
:1011B0000860FFF781FFFFF709FD0121880701F0B3
:1011C000DFFE01203F4908600020D4E72400002012
:1011D000B7A2B2BCCAF4D0D4D6F7CCE2A3BA415479
:1011E0002B514D545055423D302C312C312C302C4C
:1011F000222573222C227B22706172616D73223A48
:101200007B222573223A25647D7D220D0A00000091
:101210002B514D545055423A20302C312C30000087
:101220003000002041542B514D545055423D302C3C
:10123000312C312C302C222573222C227B22706100
:1012400072616D73223A7B226572726F725F696E92
:10125000666F223A317D7D220D0A00002C010020AC
:10126000766F6C746167650041542B514D54505535
:10127000423D302C312C312C302C222573222C2253
:101280007B22706172616D73223A7B222573223A50
:1012900025737D7D220D0A0066664A3F00002041CD
:1012A000252E326600000000340000209A9999999A
:1012B0009999A93FC9CFB1A8BEAFB8E60D0A000001
:1012C0000000274098812142D7BCB1B8B3F5CABC11
:1012D000BBAF424332360D0A0000000042433236B3
:1012E000B3F5CABCBBAFCAA7B0DCA3ACD7BCB1B81E
:1012F000D6D8C6F40D0A0000D7BCB1B8C1ACBDD376
:10130000B7FECEF1C6F70D0A00000000C1ACBDD398
:10131000B7FECEF1C6F7CAA7B0DCA3ACD7BCB1B854
:10132000D6D8C6F40D0A0000C1ACBDD3B7FECEF1CD
:10133000C6F7B3C9B9A60D0A0000000008B501211F
:10134000082000F0EFFC4020ADF8000010208DF8E0
:10135000030003208DF802006946044800F026FAD5
:101360004021024800F0CFFA08BD0000000C014007
:101370007FB505460C460121022000F0E0FCADF8E7
:101380000850ADF804400020ADF80A00ADF80600A2
:1013900001A95B4801F098FA01221146584801F072
:1013A0000AFE1D208DF8000004208DF801000020A9
:1013B0008DF8020001208DF80300684600F01FFF41
:1013C0007FBD7FB505460C460121084600F0B7FCFD
:1013D000681E80B2ADF80800601E80B2ADF804004F
:1013E0000020ADF80A00ADF8060001A94FF08040DA
:1013F00001F06AFA01221146900701F0DCFD1C2081
:101400008DF8000000208DF8010003208DF8020007
:1014100001208DF80300684600F0F1FE01218807E5
:1014200001F0AEFD7FBD10B50121880702F071F813
:1014300000283BD00121880702F07CF83148006881
:10144000401C3049086030480068401C2E49086044
:101450002E48006828B92E480068401C2C490860B6
:1014600002E000202A490860274800683C2805D38C
:10147000012028490870002023490860214800689D
:1014800042F22831884205D3012023490870002008
:101490001C4908601E48006841F27071884205D3FB
:1014A00001201E49087000201949086010BD10B5C0
:1014B00000240121124802F02CF801281FD11848FD
:1014C000008840F400401649088001210C4802F0D1
:1014D00031F814A1164802F08FF904465CB11548A2
:1014E000006808B9012000E0002012490860C82106
:1014F0000F4802F0B2F90021014801F041FD10BD92
:10150000000400403C00002040000020300000208B
:101510004400002038000020390000203A0000205C
:1015200020000020436865636B5F4D6F64650000B9
:10153000640000202400002010B586B004464FF45B
:10154000A06000F057FE01210C2000F0EBFB012110
:10155000880400F0F4FB4FF48060ADF81400032021
:101560008DF8160018208DF8170005A94A4800F0DC
:101570001DF94FF40060ADF8140004208DF8170039
:1015800005A9454800F012F901940020ADF80800C3
:10159000ADF80A00ADF80C00ADF810000C20ADF865
:1015A0000E0001A93D4800F064FC20213B4800F0FA
:1015B000D4FD27208DF8000002208DF801008DF861
:1015C000020001208DF80300684600F018FE012299
:1015D00040F22551314800F0E4FC01212F4800F091
:1015E000D4FC06B010BD10B540F225512B4800F0D8
:1015F000BDFD58B12948001D00882949294A1268B3
:10160000885428480068401C2649086010BD0FB463
:1016100038B505A800902448009A049901F08EFF7F
:1016200000200090204802F0F9F8054600BF1B4852
:10163000008800F040000028F9D000240CE01A488F
:10164000005D1649091D088000BF1448008800F09D
:1016500040000028F9D0641CAC42F0D338BC5DF8DF
:1016600014FB014600BF0D4A128802F04002002A16
:10167000F9D000200BE00A5C084B1B1D1A8000BF4C
:10168000064A128802F04002002AF9D0401C0A5C87
:10169000002AF0D170470000000C014000480040D3
:1016A000380100204C000020380500200948804700
:1016B00009480047FEE7FEE7FEE7FEE7FEE7FEE734
:1016C000FEE7FEE7FEE7FEE704480549054A064B4C
:1016D000704700000B040008ED0000089809002086
:1016E000980F0020980B0020980B002010B504469E
:1016F000CC48844208D10121042000F02DFB0021B8
:10170000042000F029FB46E0C748844208D10121AB
:10171000082000F021FB0021082000F01DFB3AE02A
:10172000C248844208D10121102000F015FB00219D
:10173000102000F011FB2EE0BD48844208D10121A9
:10174000202000F009FB0021202000F005FB22E012
:10175000B848844208D10121402000F0FDFA002160
:10176000402000F0F9FA16E0B348844208D1012184
:10177000802000F0F1FA0021802000F0EDFA0AE06C
:10178000AE48844207D10121801500F0E5FA00211E
:10179000A01500F0E1FA10BD10B50121084600F0D7
:1017A000DBFA0021012000F0D7FA10BD2DE9F0414D
:1017B000024600250026002000230024002791F87F
:1017C00003C00CF00F0591F803C00CF0100CBCF135
:1017D000000F03D091F802C04CEA050591F800C053
:1017E000BCF1000F31D0146800202BE04FF0010C49
:1017F0000CFA00F3B1F800C00CEA03069E4220D1B7
:1018000083004FF00F0C0CFA03F7BC4305FA03FCFE
:101810004CEA040491F803C0BCF1280F06D14FF044
:10182000010C0CFA00FCC2F814C00AE091F803C0E5
:10183000BCF1480F05D14FF0010C0CFA00FCC2F8C6
:1018400010C0401C0828D1D31460B1F800C0BCF10E
:10185000FF0F34DD546800202EE000F1080C4FF03B
:10186000010808FA0CF3B1F800C00CEA03069E4226
:1018700021D183004FF00F0C0CFA03F7BC4305FA9B
:1018800003FC4CEA040491F803C0BCF1280F05D115
:1018900000F1080C08FA0CF8C2F8148091F803C0A3
:1018A000BCF1480F07D100F1080C4FF0010808FA0D
:1018B0000CF8C2F81080401C0828CED35460BDE854
:1018C000F0814FF6FF710180022181700421C17007
:1018D00070470246002093680B400BB1012000E0E6
:1018E000002070470146886880B270470246002099
:1018F000D3680B400BB1012000E000207047014687
:10190000C86880B2704701617047416170470AB191
:10191000016100E041617047C16070474FF480325F
:101920000A438261816182618269826970470246ED
:101930000020434B18684FF68073184040EA0210AD
:1019400008433F4B186070473E49C8617047F0B587
:101950000A46002300240021002500F00046B6F1CD
:10196000004F02D1364EF16901E0354E7168C0F387
:10197000034583B200F44016B6F5401F08D121F0AC
:1019800070612F4E766826F070662D4F7E6012E0F3
:1019900000F48016B6F5801F06D1032606FA05F47A
:1019A000A14341F0706106E0460D360103FA06F6E8
:1019B000B14341F0706122B1460D360103FA06F6DB
:1019C000314300F00046B6F1004F02D11C4EF161E8
:1019D00001E01B4E7160F0BD30B500228B071C0F7B
:1019E0000F2303FA04F2164B08338C1053F82430FB
:1019F0009343134C08348D1044F8253023468C1043
:101A000053F824308C07240F00FA04F423430C4CC1
:101A100008348D1044F8253030BD0A49DC310860A7
:101A20007047000000080140000C01400010014018
:101A30000014014000180140001C0140002001403A
:101A40000000014000002042DF48006840F0010033
:101A5000DD49086008464068DC490840DA494860CA
:101A600008460068DA490840D74908600846006817
:101A700020F4802008600846406820F4FE0048609A
:101A80004FF41F0088607047CF49096821F4803106
:101A9000CD4A11601146096821F480211160B0F52A
:101AA000803F03D0B0F5802F0ED106E0C64909680B
:101AB00041F48031C44A116007E0C349096841F428
:101AC000A021C14A116000E000BF00BF704710B5FF
:101AD00001460022002300204A11012A02D1BA4CFB
:101AE000236806E0022A02D1B74C236A01E0B64C13
:101AF000636A01F01F02012494401C400CB10120D4
:101B000000E0002010BD38B5002000900024002522
:101B100000BF3120FFF7DBFF05460098401C009016
:101B20000098B0F5A06F01D0002DF2D03120FFF762
:101B3000CEFF08B1012400E00024204638BD014654
:101B40000020A14A106820F0F80040EAC1001060AF
:101B50007047A04908607047024600209A4B5868B9
:101B600020F47C1042EA01031843974B58607047F9
:101B700098490866704701460020934A506820F053
:101B800003000843506070478F48406800F00C0025
:101B90007047014600208C4A506820F0F00008434E
:101BA0005060704701460020874A506820F4E0608A
:101BB00008435060704701460020834A506820F473
:101BC000605040EAC1005060704729B17E4A527AA5
:101BD00002437D4B5A7204E07B4A527A82437A4B2D
:101BE0005A7270477B49D83108607047014600201F
:101BF000754A506820F44040084350607047002107
:101C0000714A20321170704A82F82010012802D0E7
:101C100004280AD104E001216B4A2032117005E04A
:101C20000521694A2032117000E000BF00BF7047F3
:101C30006949086070476449096A0143624A116250
:101C40007047654944390860704730B5002100226B
:101C5000002400235C4D6D6805F00C0121B10429BE
:101C600005D0082923D105E05C4D056022E05B4DDD
:101C700005601FE0544D6D6805F47012524D6D689B
:101C800005F48034022505EB92421CB9544D5543AE
:101C900005600BE04C4D6D6805F400351DB1504DED
:101CA0005543056002E04D4D5543056002E04B4D44
:101CB000056000BF00BF444D6D6805F0F0010909E3
:101CC000484D6B5C0568DD4045603F4D6D6805F42F
:101CD000E061090A434D6B5C4568DD4085603A4D23
:101CE0006D6805F46051C90A3E4D6B5C4568DD4086
:101CF000C560354D6D6805F44041890B3A4D6B5C0C
:101D0000C568B5FBF3F5056130BD29B12E4A5269AE
:101D100002432D4B5A6104E02B4A526982432A4BFD
:101D20005A61704729B1284A92690243264B9A6149
:101D300004E0254A92698243234B9A61704729B196
:101D4000214AD2690243204BDA6104E01E4AD2697B
:101D500082431D4BDA61704729B11B4AD2680243A6
:101D6000194BDA6004E0184AD2688243164BDA60F5
:101D7000704729B1144A12690243134B1A6104E0F7
:101D8000114A12698243104B1A6170471249403957
:101D9000086070470F49C86470470B49C8717047A5
:101DA0000948406A40F08070074948627047014620
:101DB0000020054A92680A400AB1012000E0002094
:101DC0007047014988727047001002400000FFF818
:101DD000FFFFF6FE000042428004424200127A00F9
:101DE00000093D00500000206000002010B50446AE
:101DF000FB48844209D101218803FFF7ADFF002190
:101E00004FF48040FFF7A8FF32E0F648844209D142
:101E100001214804FFF7ADFF00214FF40030FFF728
:101E2000A8FF25E0F048844209D101218804FFF78A
:101E3000A0FF00214FF48020FFF79BFF18E0EB4844
:101E4000844209D10121C804FFF793FF00214FF418
:101E50000020FFF78EFF0BE0E548844208D1012106
:101E60000805FFF786FF00214FF48010FFF781FF80
:101E700010BD2DE9F04786B005460E460024A24667
:101E800000BFA1460027B08900B100BF2F462C8AB1
:101E90004CF6FF700440F08804432C82AC894EF667
:101EA000F3100440B0883189084371890843044322
:101EB000AC81AC8A4FF6FF400440B0890443AC8249
:101EC00001A8FFF7C2FEC648874202D1DDF810A084
:101ED00001E0DDF80CA0A88900F4004040B10AEB55
:101EE000CA0000EB0A1031684900B0FBF1F807E0C6
:101EF0000AEBCA0000EB0A1031688900B0FBF1F868
:101F00006420B8FBF0F004012009642101FB108972
:101F1000A88900F4004040B1322000EBC900B0FBBA
:101F2000F1F000F00700044308E0322000EB091054
:101F30006421B0FBF1F000F00F0004432C8106B0E7
:101F4000BDE8F0874FF41651016000218180C18007
:101F500001810C21418100218181704710B5024629
:101F60000020108A4FF2FF0318400B884C8823434F
:101F70008C882343CC8823431843108210BD002152
:101F8000018041808180C180704721B1828942F403
:101F90000052828104E082894DF6FF731A408281EB
:101FA0007047F0B50346002400260025002040F6C7
:101FB0006A17B94200D100BF1846C1F3421401F0BC
:101FC0001F06012707FA06F5012C01D10C3004E0A9
:101FD000022C01D1103000E014301AB107682F43F1
:101FE000076002E00768AF430760F0BD1AB1838A5B
:101FF0000B43838202E0838A8B4383827047028A89
:102000004FF6F0731A400282028A0A430282704736
:1020100082894FF2FF731A40828182890A4382814A
:10202000704721B1828942F00202828104E08289F4
:102030004FF6FD731A4082817047028A4FF6DF73B4
:102040001A400282028A0A430282704721B1028A40
:1020500042F48042028204E0028A4BF6FF731A4087
:1020600002827047C1F30802828070470146888867
:10207000C0F308007047818941F0010181817047F8
:10208000028BD2B20283028B42EA012202837047A2
:10209000028B02F47F420283028B0A430283704761
:1020A00021B1828A42F02002828204E0828A4FF6C5
:1020B000DF731A408282704721B1828A42F0100297
:1020C000828204E0828A4FF6EF731A408282704760
:1020D00021B1828A42F00802828204E0828A4FF6AD
:1020E000F7731A408282704721B1828942F400421C
:1020F000828103E08289C2F30E028281704721B19E
:10210000828A42F40062828204E0828A4FF2FF7384
:102110001A4082827047828A4FF6FB731A4082828D
:10212000828A0A438282704721B1828A42F0020287
:10213000828204E0828A4FF6FD731A4082827047E1
:1021400002460020B1F5007F00D100BF13880B408C
:102150000BB1012000E00020704701F40072B2F5DD
:10216000007F00D100BFCA430280704770B50246AD
:10217000002400230025002040F66A16B14200D159
:1021800000BFC1F3421501F01F03012606FA03F355
:10219000012D02D19689334006E0022D02D1168A24
:1021A000334001E0968A33400C12012606FA04F40B
:1021B0001688344013B10CB1012000E0002070BD3E
:1021C00010B50022002340F66A14A14200D100BFDE
:1021D0000A1201249440A3B2DC43048010BD000025
:1021E000003801400044004000480040004C0040DE
:1021F0000050004031490143314A1160704770B5C9
:10220000002100230F22C47804B32D4C246804F469
:10221000E064C4F5E064210AC1F10403CA404478D3
:1022200004FA03F18478144021430901254C06780F
:10223000A155047804F01F050124AC4005786D1108
:10224000AD0005F1E025C5F8004109E0047804F08F
:102250001F050124AC401C4D0678761145F8264038
:1022600070BD1A4A0A400243154B1B1F1A60704783
:1022700039B1134A121D12680243114B1B1D1A601B
:1022800006E00F4A121D126882430D4B1B1D1A6097
:102290007047042808D14FF0E021096941F004019A
:1022A0004FF0E022116107E04FF0E021096921F0D1
:1022B00004014FF0E0221161704700000000FA05B0
:1022C0000CED00E000E400E080E100E080FFFF1F93
:1022D00010B50446FA48844208D101214015FFF7A1
:1022E0003BFD00216015FFF737FD17E0F5488442FC
:1022F00008D101210015FFF72FFD00212015FFF760
:102300002BFD0BE0F048844208D10121C803FFF700
:1023100023FD00214FF40040FFF71EFD10BD30B536
:102320000246002000235068E84C20400D790C68DC
:1023300044EA0524204350609068E54C2040D1E9F0
:1023400002542C434D7944EA450420439060D06AFE
:1023500020F470000C7C641EE4B2234340EA035076
:10236000D06230BD00210160017141718160C160A6
:1023700001210174704721B1826842F0010282603C
:1023800003E0826822F001028260704721B1826816
:1023900042F48072826003E0826822F4807282607C
:1023A000704710B50023CBB21AB144681C43446097
:1023B00002E044689C43446010BD816841F008011C
:1023C00081607047014600208A6802F008020AB165
:1023D000012000E000207047816841F00401816025
:1023E0007047014600208A6802F004020AB1012009
:1023F00000E00020704721B1826842F4A0028260B0
:1024000003E0826822F4A002826070470146002047
:102410008A6802F480020AB1012000E000207047BF
:1024200010B50A4600210023416821F46041531E83
:1024300041EA4331416010BD21B1426842F400627B
:10244000426003E0426822F4006242607047F0B5E7
:1024500004460D4600200021092D11DDE068A5F19C
:102460000A0606EB4607072606FA07F18843A5F198
:102470000A0606EB460603FA06F10843E0600CE0A4
:10248000206905EB4507072606FA07F1884305EBA7
:10249000450603FA06F108432061072A0FDA606B4C
:1024A000561E06EB86071F2606FA07F18843561EBE
:1024B00006EB860605FA06F10843606322E00D2A62
:1024C0000FDA206BD61F06EB86071F2606FA07F1E8
:1024D0008843D61F06EB860605FA06F108432063FB
:1024E00010E0E06AA2F10D0606EB86071F2606FA49
:1024F00007F18843A2F10D0606EB860605FA06F100
:102500000843E062F0BD21B1826842F4801282602B
:1025100003E0826822F48012826070470146C86C32
:1025200080B2704766484C300068704721B14268FD
:1025300042F48062426003E0426822F480624260BA
:10254000704721B1426842F48052426003E0426821
:1025500022F48052426070470A460021816821F4CB
:10256000E04111438160704721B1826842F400422A
:10257000826003E0826822F400428260704721B1E9
:10258000826842F40212826003E0826822F402123E
:1025900082607047014600208A6802F400120AB186
:1025A000012000E000207047F0B5044615460020E9
:1025B00000220026092911DDE068A1F10A0707EBD6
:1025C000470C072707FA0CF29043A1F10A0707EB23
:1025D000470703FA07F21043E0600CE0206901EBC3
:1025E000410C072707FA0CF2904301EB410703FA6D
:1025F00007F210432061A06BC0F30156EF1C06F1F7
:10260000010CA7EB0C0707EB870C1F2707FA0CF24E
:102610009043EF1C06F1010CA7EB0C0707EB8707B3
:1026200001FA07F21043A063F0BD10B50A4600217D
:102630000023816B21F44011531E41EA0351816351
:1026400010BD08B5002300930090009B0B4400933D
:10265000009B1A6008BD08B5024600200090009259
:1026600001F12800009B184400900098006880B297
:1026700008BD0A4600214168164B194011434160CC
:1026800070474162826270470A460021416821F02A
:102690001F0111434160704740B109490831096881
:1026A00041F40001064A0832116007E0044908318C
:1026B000096821F40001024A0832116070470000E5
:1026C0000024014000280140003C0140FFFEF0FFD3
:1026D000FDF7F1FFFFFD3FFF0246002013680B40AE
:1026E0000BB1012000E000207047CA430260704730
:1026F00070B502460020002300240B125568CEB2AC
:1027000005EA060415681D4015B10CB1012000E072
:10271000002070BD00220A12D343036070470000FE
:1027200010B50446FE48844208D10121C014FFF7C9
:1027300013FB0021E014FFF70FFBC4E0B4F1804F5E
:1027400008D101210846FFF714FB00210120FFF703
:1027500010FBB8E0F348844208D101210220FFF7C2
:1027600008FB00210220FFF704FBACE0EE488442A6
:1027700008D101210420FFF7FCFA00210420FFF713
:10278000F8FAA0E0E948844208D101210820FFF7C7
:10279000F0FA00210820FFF7ECFA94E0E4488442C4
:1027A00008D101211020FFF7E4FA00211020FFF7E3
:1027B000E0FA88E0DF48844208D101212020FFF7B9
:1027C000D8FA00212020FFF7D4FA7CE0DA488442CE
:1027D00008D101214014FFF7BFFA00216014FFF770
:1027E000BBFA70E0D548844209D10121C804FFF743
:1027F000B3FA00214FF40020FFF7AEFA63E0D048AF
:10280000844209D101210805FFF7A6FA00214FF4FF
:102810008010FFF7A1FA56E0CA48844209D101218D
:102820004805FFF799FA00214FF40010FFF794FADA
:1028300049E0C548844208D101214020FFF799FAB8
:1028400000214020FFF795FA3DE0C048844208D1BE
:1028500001218020FFF78DFA00218020FFF789FAFF
:1028600031E0BB48844208D101218015FFF781FA8D
:102870000021A015FFF77DFA25E0B648844209D172
:1028800001210804FFF768FA00214FF48030FFF7B8
:1028900063FA18E0B048844209D101214804FFF7E7
:1028A0005BFA00214FF40030FFF756FA0BE0AB481B
:1028B000844208D101218804FFF74EFA00214FF429
:1028C0008020FFF749FA10BD00220288944B9842FD
:1028D0000ED0994B98420BD0B0F1804F08D0914B5D
:1028E000984205D0904B984202D0904B984204D128
:1028F0004FF68F731A404B881A438D4B984207D07E
:102900008C4B984204D04FF6FF431A40CB881A43B1
:1029100002808B8883850B880385814B98420BD07E
:10292000854B984208D08B4B984205D08A4B9842F1
:1029300002D08A4B984201D10B7A0386012383820D
:10294000704770B5002400220023058C4FF6FE76F8
:1029500035400584028C8388048B4FF68F752C409C
:10296000B51E2C400D882C43751E2A400D892A4324
:102970004D882A436A4DA8420BD06F4DA84208D01B
:10298000744DA84205D0744DA84202D0734DA842A0
:1029900013D14FF6F7752A404D892A434FF6FB7540
:1029A0002A408D882A434FF6FF652B404FF6FF558E
:1029B0002B408D892B43CD892B4383800483CD8885
:1029C0008586028470BD70B5002400220023058C2A
:1029D0004FF6EF7635400584028C8388048B48F6E9
:1029E000FF752C404FF6FF452C400D884FF6FF76C3
:1029F00006EA05252C434FF6DF752A400D8906EAC5
:102A000005152A434D8806EA05152A43444DA84278
:102A100002D0494DA8421DD14FF67F752A404D89FD
:102A20004FF6FF7606EA05152A434FF6BF752A4092
:102A30008D8806EA05152A434FF6FF352B404FF2E5
:102A4000FF752B408D8906EA85052B43CD8906EA63
:102A500085052B4383800483CD880587028470BD60
:102A600070B5002400220023058C4FF6FF66354028
:102A70000584028C8388848B4FF68F752C404FF62B
:102A8000FC752C400D882C434FF6FF552A400D89CC
:102A90004FF6FF7606EA05252A434D8806EA052506
:102AA0002A431F4DA84202D0234DA8421DD14FF208
:102AB000FF752A404D894FF6FF7606EA05252A4321
:102AC0004FF6FF352A408D8806EA05252A434EF643
:102AD000FF752B404DF6FF752B408D8906EA0515D5
:102AE0002B43CD8906EA05152B4383808483CD884B
:102AF0008587028470BD70B5002200230024058CF8
:102B00004EF6FF7635400584038C8488828B48F628
:102B1000FF752A404FF6FF452A400D8820E000004F
:102B2000002C01400004004000080040000C004060
:102B3000001000400014004000340140004C0140EF
:102B4000005001400054014000180040001C0040AB
:102B50000020004000400140004401400048014086
:102B60004FF6FF7606EA05252A434DF6FF752B4002
:102B70000D8906EA05352B434D8806EA05352B43BA
:102B8000FA4DA84202D0FA4DA84208D14BF6FF7583
:102B90002C408D894FF6FF7606EA85152C438480FC
:102BA0008283CD88A0F84050038470BD828B4FF2A1
:102BB000FF331A408283828B4FF6FF7303EA0123AF
:102BC0001A4382837047F0B50C4615460022002157
:102BD0000026078C4EF6FF7C07EA0C070784828BE1
:102BE000018C4FF6FF7707EA043640F6FF473A407C
:102BF0004FF6FF7707EA05273A434FF6FF7707EAD4
:102C000003373A43D94FB8420ED0D94FB8420BD010
:102C1000B0F1804F08D0D74FB84205D0D64FB84258
:102C200002D0D64FB84206D14DF6FF77394046F470
:102C30008057394305E047F6FF57394044F4805741
:102C4000394382830184F0BD828B4FF6F3731A40BF
:102C50008283828B0A4382837047F0B50C46154607
:102C6000002200210026078C4FF6FF6C07EA0C07B4
:102C70000784828B018C4FF6FF7707EA04264FF614
:102C80000C773A404FF6FF7707EA03172F433A4392
:102C9000B64FB8420ED0B64FB8420BD0B0F1804F0D
:102CA00008D0B44FB84205D0B34FB84202D0B34FAA
:102CB000B84206D14FF6FF57394046F48077394382
:102CC00005E04FF2FF57394044F48077394382835F
:102CD0000184F0BD028B4FF2FF331A400283028B56
:102CE0004FF6FF7303EA01231A4302837047F0B5DE
:102CF0000C461546002200210026078C4FF6EF7C7B
:102D000007EA0C070784028B018C4FF6FF7707EA6E
:102D1000041640F6FF473A404FF6FF7707EA0337BD
:102D20003A434FF6FF7707EA05273A438F4FB842F9
:102D30000ED08F4FB8420BD0B0F1804F08D08D4FDE
:102D4000B84205D08C4FB84202D08C4FB84206D161
:102D50004FF6DF77394046F01007394305E04FF66C
:102D60005F77394044F01007394302830184F0BD96
:102D7000028B4FF6F3731A400283028B0A430283DD
:102D80007047F0B50C46154600220021068C4FF620
:102D9000FE773E400684028B018C4FF60C76324063
:102DA0007E1C06EA03162E433243704EB0420ED00C
:102DB0006F4EB0420BD0B0F1804F08D06D4EB04294
:102DC00005D06D4EB04202D06C4EB04206D14FF6E7
:102DD000FD76314044F00106314305E04FF6F576CB
:102DE000314044F00106314302830184F0BD70B5E7
:102DF00005460C465D4885420ED05D4885420BD0A5
:102E0000B5F1804F08D05B48854205D05A488542CD
:102E100002D05A48854200D100E000BF208850B956
:102E20002389A28861882846FFF7ABFFE1882846FE
:102E3000FFF79EFF25E0208804280AD12389A28875
:102E400061882846FFF753FFE1882846FFF742FFD5
:102E500017E0208808280AD12389A288618828469B
:102E6000FFF7FBFEE1882846FFF7EEFE09E0238925
:102E7000A28861882846FFF7A6FEE1882846FFF76A
:102E800095FE70BD2DE9F04105460C460026012750
:102E9000608808B9022600E00026A088012801D138
:102EA000022700E001272088A0B92389A288618831
:102EB0002846FFF766FFE1882846FFF759FF238978
:102EC0003A4631462846FFF712FFE1882846FFF7C9
:102ED00001FF13E02389A28861882846FFF707FFD6
:102EE000E1882846FFF7F6FE23893A463146284610
:102EF000FFF747FFE1882846FFF73AFFBDE8F0817A
:102F00000A884B881A438B881A43CB881A430B894B
:102F10001A434B891A438B891A43A0F844207047FF
:102F20004FF6FF71818000210180C18041800172D4
:102F300070470021018041808180C18001814181F1
:102F40008181C18170470021018041800121818000
:102F50000021C18001817047002101804180818072
:102F6000C18001814181818170470000002C0140B6
:102F7000003401400004004000080040000C004004
:102F800021B1028842F00102028004E002884FF67B
:102F9000FE731A400280704731B1B0F8442042F409
:102FA0000042A0F8442005E0B0F84420C2F30E022D
:102FB000A0F8442070471AB183890B43838102E053
:102FC00083898B43838170478182704741EA020382
:102FD000A0F8483070471AB183890B43838102E01F
:102FE00083898B438381704701894FF6F8721140C2
:102FF000018170470A46002101894FF68F731940FD
:1030000011430181704730B504460D4629462046DC
:10301000FFF7F0FF208940F00700208130BD2DE947
:10302000F04104460D4616461F46602D06D13B462C
:10303000012231462046FFF75AFE05E03B460122B9
:1030400031462046FFF79DFE29462046FFF7D2FF76
:10305000208940F007002081BDE8F08130B50C46A2
:1030600000210189C9B24FF6FF7505EA0325154312
:1030700025432943018130BD2DE9F04105460E4627
:1030800017469846002443463A4631462846FFF7FD
:10309000E5FF2C894FF6F870044044F007044FF622
:1030A0008F70044044F070042C81BDE8F081F0B5CD
:1030B00004460D4616461F463B46324629462046E4
:1030C000FFF7CCFF208940F480402081F0BD0185CE
:1030D000828270470A46002101884FF68F7319409B
:1030E000114301807047F0B50C4615461E4600217D
:1030F000002200230189028B038C4FF6F8773940B8
:1031000021434FF6FC473A4040F201173A434FF64D
:10311000DD773B404FF6FF7707EA06172F433B4327
:10312000018102830384F0BD0A460021018B4FF622
:103130008F7319401143018370470A460021018BA8
:1031400048F6FF7319404FF6FF7303EA0223194351
:10315000018370470A460021818B4FF68F73194017
:103160001143818370470A460021818B48F6FF7323
:1031700019404FF6FF7303EA022319438183704716
:1031800021B1028842F08002028004E002884FF6FA
:103190007F731A400280704721B1828842F0040296
:1031A000828004E082884FF6FB731A408280704769
:1031B00021B1828842F00802828004E082884FF6C2
:1031C000F7731A408280704721B1828842F0010271
:1031D000828004E082884FF6FE731A408280704736
:1031E0000A460021018B4FF6F77319401143018302
:1031F00070470A460021018B4FF2FF7319404FF6CA
:10320000FF7303EA02231943018370470A46002132
:10321000818B4FF6F77319401143818370470A463B
:103220000021818B4FF2FF7319404FF6FF7303EAC1
:1032300002231943818370470A460021018B4FF610
:10324000FB7319401143018370470A460021018B2B
:103250004FF6FF3319404FF6FF7303EA0223194379
:10326000018370470A460021818B4FF6FB7319409A
:103270001143818370470A460021818B4FF6FF334B
:1032800019404FF6FF7303EA022319438183704705
:103290000A460021018B4FF67F73194011430183C9
:1032A00070470A460021018BC1F30E014FF6FF73F0
:1032B00003EA02231943018370470A460021818BE8
:1032C0004FF67F7319401143818370470A460021EE
:1032D000818BC1F30E014FF6FF7303EA02231943FA
:1032E000818370470A460021018C4FF6FD73194017
:1032F0001143018470470A460021018C4FF6F77391
:1033000019401143018470470A460021018C4FF691
:10331000DF7319404FF6FF7303EA02131943018468
:1033200070470A460021018C4FF67F7319404FF613
:10333000FF7303EA02131943018470470A46002110
:10334000018C4FF6FF5319404FF6FF7303EA022337
:103350001943018470470A460021018C4FF2FF7324
:1033600019404FF6FF7303EA0223194301847047A3
:103370000A460021018C4DF6FF7319404FF6FF738A
:1033800003EA023319430184704730B50023012456
:103390008C40A3B2048C9C430484048C02FA01F593
:1033A000ADB22C43048430BD30B5002304248C40DE
:1033B000A3B2048C9C430484048C02FA01F5ADB2E0
:1033C0002C43048430BD70B5034600200024184609
:1033D000183001258D40ACB21D8CA5431D8409B168
:1033E000082909D100EB6100056825F0700505602A
:1033F0000568154305600EE00D1FC5F34E05284412
:10340000056825F4E045056005684FF6FF7606EA95
:1034100002263543056070BD21B1028842F00202E8
:10342000028004E002884FF6FD731A400280704764
:1034300021B1028842F00402028004E002884FF6C3
:10344000FB731A400280704721B1828842F08002EB
:10345000828004E082884FF67F731A408280704732
:1034600002884FF6F7731A40028002880A430280EE
:10347000704782884FF68F731A40828082880A4391
:103480008280704702894FF6F8731A4002810289E0
:103490000A430281704702894FF67F731A40028106
:1034A00002890A4302817047818470478185704791
:1034B000818670470187704781877047A0F8401068
:1034C000704702884FF6FF431A40028002880A4381
:1034D000028070470146888E70470146088F70470A
:1034E0000146888F70470146B1F840007047014699
:1034F000888C70470146088D704702460020138A69
:103500000B400BB1012000E000207047CA4302824B
:10351000704730B50246002000230024158A05EAD2
:103520000103958905EA010413B10CB1012000E003
:10353000002030BDCA430282704770471CB50C465C
:10354000064B7B4469460090204600F08CFC044604
:103550000020694600F09AFC20461CBD4709000087
:103560000FB4044910B503AA029800F0ABFC10BCDC
:103570005DF814FB1C0000200FB41CB5084B06AA14
:103580007B4469460090059800F06DFC04460020DD
:10359000694600F07BFC20461CBC5DF814FB000073
:1035A0000909000070B50C460546012A05D02878A7
:1035B000800600D5EA69002302E0012305E05B1CD8
:1035C000934202D2E05C0028F9D1A869E618C01A3B
:1035D000A861286A18442862284600F08BF904E0A4
:1035E000D5E9012114F8010B9047B442F8D32846DD
:1035F00000F096F970BD00002DE9F0410646002468
:1036000010687529314616A510D000F09AF90028E7
:1036100002DA404213A507E031688A0701D512A5F6
:1036200002E0490704D511A5012401E000F092F958
:1036300000210A2206F1240709E0B0FBF2FCB0FBEE
:10364000F2F302FB1C00303078541846491C002865
:10365000F3D123462A463046BDE8F04100F083B955
:10366000000000002D0000002B00000020000000E2
:103670002DE9F05F894604464FF0000ADFF874B187
:10368000FB44C0F820A02046E1688847002874D099
:10369000252806D0D4E901219047206A401C2062E9
:1036A000F1E700265F462046E16888472028054666
:1036B00007DB312D05D2781910F8200C08B106432C
:1036C000F1E7B00701D526F00406C4F81CA00027D6
:1036D000C4F818A02A2D09D0284601F01AFC38B3E6
:1036E00004EB8708303DC8F8185019E059F8041B5E
:1036F000204604EB87029161E1688847012F054667
:1037000018D1E069002820DA26F020061DE0D8F85C
:10371000180000EB800005EB40003038C8F81800B6
:103720002046E1688847054601F0F3FB0028EED10A
:10373000012F0AD02E2D08D12046E16888477F1C32
:103740000546022F46F02006C4DBA069002803DAF4
:10375000404246F00106A061F00701D026F01006B5
:103760006C2D0BD0682D09D04C2D39D06A2D35D059
:10377000742D35D07A2D33D016E038E0E1682F462D
:1037800020468847B842054609D16C2F26D04FF411
:103790008060E168064320468847054604E06C2FB8
:1037A0001AD04FF4807006430DB3A5F141001928DB
:1037B00002D8203546F400664A462946204626604F
:1037C0004E46FCF7CDFC80B101280BD0F61D26F04B
:1037D000070000F1080956E74020E4E78020D8E719
:1037E0000020D6E706F104094DE7284652E7206A93
:1037F000BDE8F09F1A20000030B505460B462A466A
:1038000013F8014B12F8010B08B1A042F8D01CB11B
:10381000002802D06D1CF1E7284630BD10B5431CCE
:1038200002E010F8011B71B18107FAD14FF00132AB
:1038300002C88C1A8C4314EAC211F9D0C01A0A06C5
:1038400003D0C01E10BDC01A10BD0A0401D0801ED6
:1038500010BD0902FCD0401E10BD4FF0000204292B
:10386000C0F0128010F0030C00F01B80CCF1040CAF
:10387000BCF1020F18BF00F8012BA8BF20F8022BE3
:10388000A1EB0C0100F00DB85FEAC17C24BF00F889
:10389000012B00F8012B48BF00F8012B70474FF0B7
:1038A000000200B5134694469646203922BFA0E890
:1038B0000C50A0E80C50B1F12001BFF4F7AF09079C
:1038C00028BFA0E80C5048BF0CC05DF804EB89008D
:1038D00028BF40F8042B08BF704748BF20F8022BD0
:1038E00011F0804F18BF00F8012B704770477047E8
:1038F0007047704770B5044685690068C10601D5F8
:10390000302600E02026C00707D070BDD4E9012191
:1039100030469047206A401C20626D1EF6D570BD6F
:1039200070B5044685690078C00707D170BDD4E939
:10393000012120209047206A401C20626D1EF6D590
:1039400070BD09684A0501D540B27047C905FCD56C
:1039500000B2704709684A0501D5C0B27047C90571
:10396000FCD580B270472DE9F0470D469946924646
:10397000044600F124080168880604D5E06921F0B6
:103980001001216000E00120A84201DD471B00E09A
:103990000027A1697A1902EB0900081AA0612078B2
:1039A000C00602D42046FFF7A5FF002608E0D4E9B0
:1039B00001211AF806009047206A401C761C2062FC
:1039C0004E45F4DB2078C0060AD52046FFF792FF6B
:1039D00006E0D4E9012130209047206A401C206293
:1039E000381EA7F10107F4DC07E0D4E9012118F83B
:1039F00005009047206A401C2062281EA5F10105A1
:103A0000F3DC2046FFF78CFF2078000602D5022069
:103A1000BDE8F0870120FBE711680268006A5305E2
:103A200001D508700AE0D30501D5088006E0130629
:103A300003D5C217C1E9000200E008600120704709
:103A400070472DE9FF4F0C461E464FF0FF378BB0F5
:103A5000D2E90001DDF860800A908A46C1F30A5578
:103A600005B93D46002108464FF00000BAF1000FAD
:103A700000F4400005DA00EB80004FF4400101EA59
:103A800050004FEA9059B9F1010F00DDB9460A988C
:103A900050EA4A000ED044F61050A5F2FF354543D7
:103AA0002F14B8F1000F1ED07542291E1EDDC9F17A
:103AB00000021CE0B8F1010F4FF0000001D03021EE
:103AC00003E0F24305E02154401CB042FBDB3046EA
:103AD0000022002121540B99C1F80880C1E900207F
:103AE0000FB0BDE8F08FBD1B6D1CDEE74A4600DA63
:103AF000694206A800F034FD06AB93E8070003AB6B
:103B000083E8070050460A9900F034FE8DE807006C
:103B1000A0F500501F3800900398002D09DD42F2F7
:103B20001F014A46084403A90390684601F093F830
:103B300008E0A0F500504A461F3803A903906846E4
:103B400001F09DF88DE807000004000C03D04FF051
:103B5000FF30410800E01046B8F1000F03D000220A
:103B6000009215461EE0751E05D400F0DFFA3032D3
:103B700062556D1EF9D5B3460122084302D00022DA
:103B80007F1C04E02078302801D100227F1E002A0B
:103B9000099786D01DE0112D07DA00F0C7FA303200
:103BA00062556D1C50EA0102F5D1084302D000981D
:103BB000C8B10EE00021681E05E0235C625C63541E
:103BC0002254401E491C8142F7DBAB46A81B401E15
:103BD0000990002004F80B000B98099AC0F808809F
:103BE000C0E9002B7CE711264FF0000859E72DE9CA
:103BF000F04F88460446D21D22F0070191B0D1E96A
:103C00000001CDE90A0101F070F902460B98C00FDE
:103C100001D02D2007E02068810701D52B2002E08C
:103C2000202101EAC000032A099001D0072A05DB00
:103C300003464146204600F03DFC0BE1207880061B
:103C400001D5E06900E00620B8F1650F814606D095
:103C5000B8F1660F18D0B8F1670F70D131E00020CD
:103C6000B9F1110F009001DB112301E009F101030B
:103C70000AAA01A90CA8FFF7E4FEDDE90C700026F2
:103C800009F10105834647E001204B4600904FF0C3
:103C900000470AAA01A90CA8FFF7D3FEDDE90DB081
:103CA0000C995D46002610B909F101000D18B9EB19
:103CB000050003D4C0F1FF3609F10105A5EB0900A9
:103CC0002BE0B9F1010F01DA4FF001090020B9F141
:103CD000110F0090484601DD112300E003460AAAB7
:103CE00001A90CA8FFF7ADFEDDE90C704D460026DA
:103CF0008346207800070AD4AB4500DA5D4601A868
:103D0000012D04DD411911F8011C302907D04F4560
:103D100002DA17F1040F04DA012082460FE06D1E6B
:103D2000EEE7002F02DCED1B3E4403E0781CA842C6
:103D300000DD7D1CB81B00F1010A4FF00047207820
:103D4000000703D4AA4501DB4FF0FF3A0021B7F189
:103D5000004F0DF143088DF8431024D002202B238F
:103D6000002F01DA7F422D230A21021EA0F101005B
:103D700000DC5FB197FBF1FC97FBF1F201FB1C7CCF
:103D800017460CF1300C08F801CDEEE7A8F1010060
:103D900003702188090501D5452100E06521A0F1C6
:103DA000010800F8011C09980FA9A1EB0807FF1DE5
:103DB00000B10120411901EBEA70A1693844081AE9
:103DC000401EA0612078C00602D42046FFF792FD75
:103DD000099828B1D4E901219047206A401C20624B
:103DE0002078C00622D52046FFF784FD1EE0002E75
:103DF00004DBB34502DD01A8805D00E03020D4E99A
:103E000001219047206A401C2062761CAAF1010023
:103E10005FEA000A0AD100F085F9C0680168405CD9
:103E2000D4E901219047206A401C2062281EA5F198
:103E30000105DCDC07E0D4E9012118F8010B90470B
:103E4000206A401C2062381EA7F10107F3DC2046DF
:103E5000FFF766FD032011B043E6000001694A1C2C
:103E600002610878704700B58FB0CDE901310021BB
:103E7000059105497944CDE9031011466846FFF7DD
:103E8000F7FB0FB000BD0000E5FFFFFF0A6802F876
:103E9000010B0A60704710B5436913B1AFF300809E
:103EA00001E0FFF77FFB012010BD127800F1240133
:103EB0000A7000224A700122EDE711684FF0FF32CC
:103EC000E9E70000074B70B50D467B44FFF7CBFFD9
:103ED0000446284600F0B2FB10B14FF0FF3070BD31
:103EE000204670BD17C7FFFF2DE9FF5F15468A46C4
:103EF0000446DFF8AC80F8440027D8E900103E46BD
:103F0000CDE9001010E03AF816106A4602A800F059
:103F100099FB411C07D02178890603D5E26939183D
:103F200091420DD80744761C2078800602D5E069BE
:103F3000B84205DDAE42E6DB3AF816000028E2D1D1
:103F4000A069C01BA0612046FFF7D4FCD8E900108F
:103F5000CDE90010002017E03AF818106A4602A8D0
:103F600000F070FBB0F1FF3F81460BD000250DF152
:103F7000080B05E0D4E901211BF8050090476D1CF2
:103F80004D45F7D308F10100B0428046E4DB206ADA
:103F9000384420622046FFF7C3FCBDE8FF9F0000C5
:103FA000B61700002DE9F0418046D21D22F007022D
:103FB0000025D2E90002F52915A614D0011E72F1E0
:103FC000000106DA0023D0EB030063EB020211A626
:103FD00008E0D8F800108B0701D50FA602E04907CA
:103FE00001D50EA601251146002408F1240704E09E
:103FF00000F09CF830323A55641C50EA0102F7D1C7
:104000002B46324621464046BDE8F041FFF7ABBCA7
:10401000000000002D0000002B0000002000000028
:1040200030B4002100F1240408E002F00705D208B2
:10403000303542EA4372DB086554491C52EA0305F5
:10404000F3D10468002310A2250708D504F020044A
:104050000C4304D0C46901230CA2641EC46130BCAB
:10406000FFF781BC10B5044621461068FFF772FCCB
:1040700002462046BDE810400023D1E7D21D22F0C1
:104080000701D1E90023CBE7000000003000000069
:10409000F0B40D460188090502D5214C7C4402E0AC
:1040A0001F4C7C440E34002100F1240608E002F08D
:1040B0000F071209E75D42EA03721B097754491C96
:1040C00052EA0307F3D102780023120704D5702DBA
:1040D00006D009B1022311342246F0BCFFF743BCDD
:1040E00001231034F8E770B504460D4621461068E8
:1040F000FFF730FC024629462046BDE87040002309
:10410000C6E7D21D22F00703D3E90023C0E7036806
:10411000126843F0200303600823C3610023B7E75C
:1041200018160000004870475809002030B5B0F15B
:104130000A024FEA900E71F100034EEA817EB0EB65
:104140000E0061EB91014FEA101E4EEA017E10EB6A
:104150000E0041EB11114FEA102E4EEA016E10EBEA
:104160000E0041EB11214FEA104E4EEA014E10EBCA
:104170000E0041EB1141401841F100014FEAD0001F
:1041800040EA41704FEAD10110EB80054FEA81040B
:1041900044EA907444EB01046D1944EB0404521B8F
:1041A000A3414FF0000348BF0A3200D530BD401C88
:1041B00041F1000130BD00002DE9F04F04460D46ED
:1041C000D21D22F0070089B0D0E900924846174678
:1041D000394600F08AFE0246F80F01D02D2307E091
:1041E0002068810701D52B2302E0202101EAC003CA
:1041F0008DF820300BB1012000E00020032A824618
:1042000001D0072A04DB2946204600F053F93DE19E
:104210002078800601D40D2500E0E569C7F30A5631
:104220000D2D49DA00214FEA175B08464FF00000D8
:10423000002F00F4400007DA00EB80004FF440014B
:1042400000EBD07001EA60008115012901DD4FF01B
:10425000FF3100224FEA850CBCF1180F06D313463C
:10426000ACF118004FF08052C24003E04FF48013CD
:1042700023FA0CF30CF10C0CBCF1200F04D3ACF1BD
:10428000200C09FA0CF001E007FA0CF000294FF0BD
:10429000004801DD18B90FE00ED140450CD319EBF1
:1042A00002095F4121B9404502D19F4329EA020931
:1042B000BBEB175F00D0761C2088000502D57B4839
:1042C000784402E079487844193808AA302302F883
:1042D0000A30037C0AF10101002E0AF1020A53544C
:1042E0006A4602DC4FF0300101E04FF031014FF03F
:1042F00001088DF8001002D0A6F2FF3603E059EA5B
:10430000470100D06A4E002D02DC2178090704D550
:104310004FF002082E218DF80110C44600210BE059
:10432000C7F303433F01C35C491C6D1E02F808300C
:10433000052908F1010801DA002DF1DC00210CE06B
:1043400000EB1973491C1B786D1E082902F8083010
:104350004FEA091908F1010801DA002DF0DC217893
:10436000890602D514E0A8F10108E04505DD02EB5D
:10437000080111F8011C3029F5D0B8F1000F07DD54
:1043800002EB080111F8011C2E2901D1A8F1010846
:10439000002D05DD3E2102F808106D1E08F1010810
:1043A000407C002E02F8080008F1010804DA2D20F4
:1043B000764202F8080002E02B2002F808000A21E9
:1043C0004FF47A70864208F101080BDB96FBF0F39C
:1043D000303302F8083096FBF0F308F1010800FBD7
:1043E000136601E0642E0CDB642096FBF0F330339F
:1043F00002F8083096FBF0F308F1010800FB1366A1
:1044000001E00A2E06DB96FBF1F0303002F80800DE
:1044100008F1010896FBF1F001FB1060303002F862
:104420000800A16908F1010808EB050202EB0A0087
:10443000081AA0612078C00602D42046FFF75AFA75
:10444000216A08AE01EB0A00206204E0D4E90121F0
:1044500016F8010B9047BAF1010AF7D22078C0068E
:1044600002D52046FFF746FA6E4609E016F8010B22
:104470003E280FD0D4E901219047206A401C2062D9
:10448000B8F10108F2D22046FFF74AFA09B003203A
:10449000BDE8F08F206A2844206203E0D4E90121BE
:1044A000302090476D1EEBD3F8E700002F1400007A
:1044B00002FCFFFF2DE9F0411F4604460326016878
:1044C000072A01F4006004DB08B116A505E016A573
:1044D00003E008B115A500E015A521F0100020604B
:1044E000A069C01EA0610FB1401EA0612046FFF769
:1044F00001FA4FB1D4E9012138469047206A401CA7
:104500002062C01C206206E0206AFAE7D4E901219B
:1045100015F8010B9047761EF8D22046FFF700FAF7
:10452000BDE8F0814E414E006E616E00494E46007E
:10453000696E660010B5436913B1AFF3008001E006
:10454000FFF7D2FC012010BD128800F12401828403
:104550000022C2840122EDE711684FF0FF32E9E743
:104560002DE9F047814616468AB0334878440DC895
:104570008DE80D0030487844801C03AC0DC884E8F9
:104580000D0041F69B300844372190FBF1F290FB7F
:10459000F1F5A5F1800501FB12041B3C02D5644234
:1045A000012000E00020DFF890A080460027FA44B8
:1045B000AAF1BE0A0DE0E00709D03246684607EBD3
:1045C00047010AEB810100F05AFB8DE807006410F7
:1045D0007F1C002CEFD1184F7F44AC3F18E0E80758
:1045E00014D007EB04100DF1180A90E80E008AE8C9
:1045F0000E00C068F04201D198190890324606A911
:1046000003A800F03CFB03AB83E807006D10641CBB
:10461000002DE4D132466946B8F1000F03A802D05C
:1046200000F019FB01E000F02AFBC9E90001C9F81C
:1046300008200AB0BDE8F08714120000007B00F0EB
:104640008000704770B516460C46054600F044F8E9
:10465000036893F80101012806D0FF2C0FD8185DDC
:1046600068B101202C7070BDD3F807013246214695
:1046700003F2071303442846BDE8704018474FF083
:10468000FF3070BD00487047380900207546FFF7BD
:10469000F9FFAE4605006946534620F007008546FF
:1046A00018B020B5FDF710F8BDE820404FF0000627
:1046B0004FF000074FF000084FF0000B21F007010A
:1046C000AC46ACE8C009ACE8C009ACE8C009ACE84D
:1046D000C0098D467047000010B5FFF723FD001D8F
:1046E00010BD00BF690800000446AFF300802046FB
:1046F000FBF799FD4FF0013C50F8042B51F8043BB7
:104700009A4221D1A2EB0C03934313EACC1317D1A5
:1047100050F8042B51F8043B9A4215D1A2EB0C033C
:10472000934313EACC130BD150F8042B51F8043BFC
:104730009A4209D1A2EB0C03934313EACC13DBD0CA
:104740004FF00000704700BFD01A01BAB1FA81F1F2
:1047500001F0180122FA01F0CB40C1F12001DBB2D7
:10476000C0B2C01A2CFA01F3D11A914311EAC31155
:10477000E6D170475FEA400C08BF91F0000F4FEAA6
:104780008C234FEAC12243EA51514FEA1C5018BF13
:1047900000F5F0404FEA300018BF41F000415FEAF9
:1047A0006C5C00F02980BCF1FF3F08BF40F0804006
:1047B0007047130C06BF12044FF0100C4FF0000CA2
:1047C000130E04BF12020CF1080C130F04BF1201E8
:1047D0000CF1040C930F04BF92000CF1020CD30FE8
:1047E00004BF52000CF1010C11464FF00002A0F181
:1047F0001F00A0EB0C00704711F0004F08BF70477E
:1048000031F000413FF4D5AF0B0C06BF09044FF067
:10481000100C4FF0000C0B0E04BF09020CF1080C39
:104820000B0F04BF09010CF1040C8B0F04BF8900AE
:104830000CF1020CCB0F04BF49000CF1010CCCF1C0
:104840002003A0EB0C0022FA03F302FA0CF241EA77
:10485000030100F10100704720F07F4C80EA030063
:1048600023F07F47ACEB070303F57C5300F00040D7
:1048700003F1FF032DE980494FEA154B09B44FEAD4
:10488000144325EA0B4E24EA03480FF2042606EBF4
:10489000132749083E785FEA320203FB0667C7F533
:1048A000000707FB06F64FEA54374FEAD64606F1F3
:1048B000020607FB066CCCF1005C4FEA1C472CEAB1
:1048C000074C07FB06F40CFB06F504EB15464FEA14
:1048D000961634BF00204FF000404FEAD13706FB58
:1048E00007FC4FEA1C4C0CFB0BF7D21B03FB0CF72D
:1048F00061EB07010CFB0EF7B0EB074072EB1742C0
:104900000CFB08F734BFA2EB0742B2EB074261EBA6
:1049100017414FEA0C444FEA910706FB07FC4FEAA8
:104920001C4C0CFB0BF7B0EBC74072EB573203FB90
:104930000CF734BFA2EBC742B2EBC74261EB573171
:104940000CFB0EF7B0EBC70072EB57720CFB08F7CD
:1049500034BFA2EBC702B2EBC70261EB5771039FF2
:104960004FEA816141EA921104EBCC044FEAD1375E
:104970004FEA826206FB07FC42EA90124FEA80602F
:104980004FEA1C4C0CFB0BF7D21B03FB0CF761EB43
:1049900007010CFB0EF7B0EB074072EB17420CFB64
:1049A00008F734BFA2EB0742B2EB074261EB1741B5
:1049B0004FEA8C554FEA910704EB9C2406FB07FC59
:1049C0004FEA1C4C0CFB0BF7B0EBC74072EB5732B5
:1049D00003FB0CF734BFA2EBC742B2EBC74261EB5B
:1049E00057310CFB0EF7B0EBC70072EB57720CFBA4
:1049F00008F734BFA2EBC702B2EBC70261EB5771F5
:104A000015EB4C254FEA816141EA92114FEA82622F
:104A10004FEAD13742EA901206FB07FC44F100044A
:104A20004FEA80604FEA1C4C0CFB0BF7D21B03FBD8
:104A30000CF761EB07010CFB0EF7B0EB074072EBD4
:104A400017420CFB08F734BFA2EB0742B2EB074258
:104A500061EB174115EB1C154FEA813141EA924198
:104A60004FEA823242EA90424FEA80304FEA0C76B7
:104A700044F1000448EA03434EEA0B484FF0000EAD
:104A8000B2EB080C71EB030724BF624639464EEBCC
:104A90000E0E4FF0000B0018524149414BEB0B0B2F
:104AA000B2EB080C71EB03077BF1000B24BF6246ED
:104AB00039464EEB0E0E4FF0000B001852414941A3
:104AC0004BEB0B0BB2EB080C71EB03077BF1000B0C
:104AD00024BF624639464EEB0E0E51EA020718BF5C
:104AE00046F0010616EB0E7655F1000254F1000176
:104AF00003D5BDE88901BDE80088BDE88901BDE8AE
:104B00000048B619524141EB0101A3F1010370477E
:104B100080807F7E7D7C7B7A7978777676757473FA
:104B2000727171706F6E6E6D6C6C6B6A6A696868B9
:104B3000676666656464636362616160605F5F5E4F
:104B40005E5D5D5C5C5B5B5A5A59595858575756C5
:104B5000565555555454535352525251515050502A
:104B60004F4F4F4E4E4D4D4D4C4C4C4B4B4B4A4A7C
:104B70004A494949484848474747474646464545C0
:104B800045444444444343434342424242414141F9
:104B9000002B26D4770021D01CB54FEA370703B489
:104BA0004FF010004FF010014FF000000FBCBDE8B7
:104BB00010400BF1010BBBF1010F08BF5FEA1707B3
:104BC00022BF12F1010211F101014FF0004143F146
:104BD000000300F0004043EA00007047F9D3570893
:104BE000DAE746EA064613F1400F4FEA16461FDDA4
:104BF00013F1200FDFBF16430A46002120335B422A
:104C0000C8D0C3F1200746EA064602FA07F74FEA82
:104C1000164646EA0706C3F1200722FA03F201FA14
:104C200007F721FA03F14FF0000342EA0702B1E768
:104C300046EA020646EA06464FEA164646EA0106F4
:104C4000BCBF46EA0646360C4FF000034FF00002A8
:104C50004FF000019EE72DE9C048934630B491E83B
:104C6000380007C831EA400C48BF34EA430C03D58A
:104C7000FFF7F2FDFFF78CFFF0BCBDE800882DE9DF
:104C8000C048934630B491E8380007C810F0804F10
:104C900008BF13F0804F03D100F005F8FFF778FF4D
:104CA000F0BCBDE8008820F07F4780EA030023F0D5
:104CB0007F4C07EB0C03A3F57C5300F00040A3F1FD
:104CC000FE0392F0000F00F0B38095F0000F00F0AB
:104CD00077802DE901494FEA11404FEA144621EA55
:104CE000004800FB06FC24EA064708FB06F607FB23
:104CF00008F800FB07F718EB06484CEB164C4FEA98
:104D0000124B18EB07484FEA15464CEB174022EAC6
:104D10000B4E0BFB06FC25EA06470EFB06F607FBCF
:104D20000EFE0BFB07F71EEB064E4CEB164C4FF03E
:104D300000061EEB074E4CEB174B18EB0B0840F12F
:104D4000000018EB0E0B58EB000840F100008F1A22
:104D50004FF000013CBFC943661B14BFB5EB040C08
:104D600000213CBFC943F61B4FEA17444EEA8E0EA2
:104D700027EA04454FEA1C4704FB07622CEA074C6C
:104D800005FB07F70CFB05F604FB0CFC16EB0746CE
:104D900042EB174216EB0C4642EB1C421BEB06069D
:104DA00058EB0202414146EA9E0601D5BDE8018961
:104DB000B619524141EB0101A3F10103BDE801899C
:104DC0004FEA14454FEA114724EA054621EA074C09
:104DD00005FB07F406FB07F70CFB06F105FB0CFCD3
:104DE00011EB074144EB17444FEA124711EB0C411A
:104DF00044EB1C4422EA074C05FB07F206FB07F7CD
:104E00000CFB06F605FB0CFC16EB074642EB1742C3
:104E100016EB0C4642EB1C456A1854F1000148BFE2
:104E20007047B619524141EB0101A3F101037047EC
:104E300095F0000F37D04FEA11424FEA144721EAAC
:104E4000024624EA074C02FB07F106FB07F70CFBBE
:104E500006F402FB0CFC14EB074441EB17414FEA4C
:104E6000154714EB0C4441EB1C4125EA074C02FBAF
:104E700007F506FB07F70CFB06F602FB0CFC16EB2E
:104E8000074645EB174516EB0C4645EB1C4212193D
:104E900051F1000148BF7047B619524141EB010181
:104EA000A3F1010370474FEA14454FEA114724EA82
:104EB000054621EA074C05FB07F106FB07F70CFB4B
:104EC00006F24FF0000605FB0CFC12EB074241EB2B
:104ED000174112EB0C4251EB1C4148BF704792182E
:104EE00041EB0101A3F101037047490050EAC120E1
:104EF00018BF04204A0D18BF40F0010040F2FF72B5
:104F0000B2EB515F08BF40F00200012808BF052046
:104F1000704730380A2801D20120704700207047BE
:104F200010B500290AD00878002807D00548784431
:104F3000FFF7E0FB002801D0002010BD02487844B4
:104F400010BD00008E0800008608000010B5002982
:104F50000AD00878002807D005487844FFF7CAFB34
:104F6000002801D0002010BD0248784410BD000088
:104F70007E0800007608000021F00042A2F1605295
:104F8000B2F5801F01F0004328BFD2F17F6C0BD92E
:104F90005FEA001C43EAC20242EB507018BF704740
:104FA00028BF20F001007047B2F5801FBCBF184633
:104FB00070474FEA410C1CF5001F02D2084600F072
:104FC000F0BA70B500F00EF900000089FFF7F6BFE7
:104FD0004FF00040A0F580007047491058BFC1F164
:104FE00040415B1058BFC3F140438B42EFF3008058
:104FF0007047B0FA80F310FA03F10AD0C3F11D0331
:1050000003F580634FEA41504FEA035202EBD1218E
:1050100070474FF00000704751EA030C17D41CF59D
:10502000801F58BFBCF5801F00F10680994218BF51
:10503000704708BF9042704707D711F5801F58BFCF
:1050400013F5801F19D499427047894270471CF5A7
:10505000801F08D5BCF5801FF7D58B4218BF70475D
:1050600008BF824270474FF4001C1CEB410F38BF51
:105070001CEB430F01D28B42704770B500F0B2F8C1
:10508000922449004FF000514FF08053FFF7A5BF25
:10509000DFF848C170B51CEA111E1EBF1CEA1315CB
:1050A0009EEA0C0F95EA0C0F00F06F8081EA030472
:1050B00023EA4C134EEAD47E21EA4C1141F48011CC
:1050C00043F48013AE44A1FB024CA0FB0365AEF198
:1050D0007F7E361955EB0C05A1FB034C4CF1000308
:1050E000A0FB021C16EB0C06654153F100030942BC
:1050F00018BF46F0010613F4007F0BD14FEA0331CD
:105100004FEA0530340341EA155140EA16506FF07A
:1051100003020AE04FEAC3214FEAC520F40241EA44
:10512000555140EA56506FF0020202EB2E4201EB5D
:10513000025585EACE710AD05FEA440C18BF24F00C
:10514000004450F1000041F1000120EAD47040F227
:10515000FE7C624500D270BDA84214BF4FF080446F
:105160004FF04044002E08BF0024BEF1806FA8BF5E
:10517000A1F1C041BDE8704080F282804FF0000094
:1051800001F1C04101F0004170479EEA0C0F0CEAAA
:10519000131518BF95EA0C0F06D04FF0000081EAF6
:1051A000030E0EF0004170BD00F01CF88900013EB6
:1051B00000F007B800F009B84FEA430C5FEA5C5C06
:1051C00008D081EA030100F05BB84FEA410C5FEAC6
:1051D0005C5CF6D14FF00000014970470000FF070A
:1051E0000000F87F0EF1020E2EF0030E5EF8046B45
:1051F000364205D4012A43EB030515F5001F12D8EA
:10520000012841EB010C1CF5001F0CD80ED14FEA10
:10521000D17C15F5001F0CEB4C0C0CF1020C08BFF7
:105220004CEBD37C04E04FF0080C01E04FEAD37C58
:105230000CEB4C0526FA05F606F00706B6F1040C51
:1052400006D20EEB860CBDE870404CF0010C6047B6
:10525000DFE80CF0090B02024FF000414FF00000B4
:10526000A1F5002170BD19461046012851EB01043B
:1052700018BFD4F5001484BF002001F0004170BDB8
:105280000808A0F500114FEA3101704753EA010CFC
:1052900017D41CF5801F58BFBCF5801F00F1068095
:1052A0008B4218BF704708BF8242704707D713F57B
:1052B000801F58BF11F5801F19D48B4270479B4245
:1052C00070471CF5801F08D5BCF5801FF7D59942A3
:1052D00018BF704708BF904270474FF4001C1CEB8A
:1052E000430F38BF1CEB410F01D2994270470FB4F6
:1052F0000CBC03BCFFF7C1BE43004FEAD30C4FEA1E
:105300003C0C43401FBF40070CF1605113F0FE4FAF
:1053100070471CF0006F03D100200CF00041704773
:105320000CF0004343EA507010B540EACC0000F0A6
:10533000F2F800BF000000924FEA0001FFF7A0BFA3
:105340004FF000414FF00000A1F500217047000030
:1053500090EA010F48BF81F0004100F12E81421A0E
:105360003CBF801A89184FEAD0524FF07F4C1CEA9C
:10537000410FA2EBD15318BF9CEA026F00F03B80B3
:105380004FF0004C4CEA00204CEA012121FA03FCCA
:1053900010EB0C0C1ED202F1FF325FEA1C2040EB36
:1053A000C25038BF70471CF07F0F4FEA400C18BF47
:1053B000BCF17F4F38BF7047C3F12003994008BF4D
:1053C00020F00100BCF17F4F38BF7047A0F1C04012
:1053D00000F0E7B84FEA3C00000A40EBC25028BF9B
:1053E0001CF0FF0F4FEA400CE6D018BFBCF17F4F16
:1053F00038BF7047EAE79CEA026F05D010EA5C0FFD
:1054000008BF00F00040704710B500F084F800BFFE
:1054100064FBBE3E4FF47F0C1CEAD0121EBF1CEA98
:10542000D11392EA0C0F93EA0C0F00F0478090EA38
:10543000010F48BF42F480724FF0004C4CEA00204C
:105440004CEA012102EB0302A0FB0113A2F50002CA
:10545000002918BF43F001035B0028BF4FEA330364
:1054600042EB22425FEA132C4CEBC2502EBFBCEB46
:10547000436FB2F57C0F70474FEA036CBCF1004FED
:1054800008BF20F00100B2F57C0F38BF70470BD584
:1054900082F0FF0212F5803FC8BF704700F1C040A4
:1054A000D8BF00F00040704700F5000C5FEA4C0CDC
:1054B00048BF7047B0F1C04000F073B890EA010FE8
:1054C0000CEAD11348BF42F48072624538BF63458D
:1054D00004D280EA010000F00040704710B500F0EF
:1054E0001AF800BF8900013E00F007B800F009B8C3
:1054F0005FEA410C5FEA1C6C08D080EA010000F012
:1055000050B85FEA400C5FEA1C6CF6D14FF00040E7
:10551000A0F5800070470EF1020E2EF0030E5EF82B
:10552000044B244204D44FEA4102B2F17F4F11D818
:105530004FEA4003B3F17F4F0CD80ED14FEAD07C35
:10554000B2F17F4F0CEB4C0C0CF1020C08BF4CEB92
:10555000D17C04E04FF0080C01E04FEAD17C0CEB69
:105560004C0324FA03F404F00704B4F1040C06D24B
:105570000EEB840CBDE810404CF0010C6047DFE8F6
:105580000CF0070802024FF00040A0F5800010BDAB
:105590000846420018BFD2F1807288BF00F0004078
:1055A00010BDFF2141EAD050C005704790EA010FBD
:1055B00048BF81F000413FF5D2AE421A04D882F0D4
:1055C0000042A0EB020011444FEAD0524FF07F4C52
:1055D0001CEA410FA2EBD15318BF9CEA026F4AD0DC
:1055E0004FF0004C4CEA00204CEA012121FA03FC68
:1055F000B0EB0C0C0FD412F0FE0F36D05FEA4C006B
:105600001DD5001240EBC25038BF70471CF03F0F51
:1056100018BF70470BE0A2F101025FEA1C2040EBCB
:10562000C25038BF70471CF07F0F18BF7047C3F1DE
:105630002003994014BF401E20F0010070478008ED
:105640004FEA122308BF7047B0FA80FCA2EB0C02AD
:10565000CCF1280C60FA0CF093EA122F04BF00EB97
:10566000C25070474FEAC3707047130A5FEADC10FC
:1056700008BF7047F6E79CEA026F04D010EA5C0F9F
:1056800008BF0020704710B5FFF745FF40DFF63E2A
:1056900081F000407047FEF7AABAFEF78DBD040006
:1056A00000080000000000000002000100001000DF
:1056B000000000000000000030313233343536374E
:1056C0003839414243444546403058003031323346
:1056D0003435363738396162636465664030780046
:1056E0003031323334353637383961626364656658
:1056F00078700030313233343536373839414243EF
:10570000444546585000000002400000000000A040
:105710000000000005400000000000C8000000007C
:105720000C4000000000409C0000000019400000F8
:105730000020BCBE0000000034400000BFC91B8E2A
:1057400000000004B5400000504BCFD06607E2CF08
:10575000010000006C4100003E8251AADFEEA73438
:1057600001000000D9420000DCB5A0E23A301F97EA
:10577000FFFFFFFFB4450000FD25A0C8E9A3C14F0E
:10578000FFFFFFFFFF3F000000000080000000005F
:10579000FF3F00000000008000000000E858000803
:1057A0000000002064000000280100084C59000897
:1057B00064000020340F0000440100081C000000B9
:1057C00043000000F8FFFFFF0C0000000E00000087
:1057D0000F0000002E000000100100004300000038
:1057E000F8FFFFFF00404040404040404040414102
:1057F00041414140404040404040404040404040A6
:10580000404040404005020202020202020202023F
:10581000020202020220202020202020202020023C
:1058200002020202020290909090909010101010CC
:105830001010101010101010101010101010101068
:1058400002020202020288888888888808080808FC
:1058500008080808080808080808080808080808C8
:1058600002020202400000000000000000000000F0
:105870000000000000000000000000000000000028
:105880000000000000000000000000000000000018
:105890000000000000000000000000000000000008
:1058A00000000000000000000000000000000000F8
:1058B00000000000000000000000000000000000E8
:1058C00000000000000000000000000000000000D8
:1058D00000000000000000000000000000000000C8
:1058E00000000000000000000000000000A24A04C8
:1058F0000000000000000000010203040607080980
:105900000000000000000000000000000000000097
:105910000000000000000000000000000000000087
:105920000000000000000000000000000000000077
:10593000000000000000000000000000010203045D
:0C5940000102030406070809020406081F
:04000005080000ED02
:00000001FF
